:020000040000FA
:10000000280D0020550000005D0000005F0000008A
:1000100000000000000000000000000000000000E0
:10002000000000000000000000000000610000006F
:1000300000000000000000006300000065000000F8
:100040000348854600F026F800480047F10C000000
:10005000280D00200448804704480047FEE7FEE7DB
:10006000FEE7FEE7FEE7FEE7CD06000041000000E8
:10007000D2B201E00270401C491EFBD27047002240
:10008000F6E710B513460A4604461946FFF7F0FF97
:10009000204610BD064C0125064E05E0E36807CC5E
:1000A0002B430C3C98471034B442F7D3FFF7CCFFF6
:1000B000300F0000500F00001F21014001228A4034
:1000C000000F0C2101400348405803494358134393
:1000D00043507047280E00000402005015490A687A
:1000E00002430A607047C046F8B5124CE6682268C1
:1000F00004252A432260102216402E4BE76817423F
:1001000001D15B1CFAD10722D243236913402B4350
:100110002361A3690F27BB430B43A36121691140EE
:100120000143216100F082FA16B92068A8432060DB
:10013000F8BDC04600020050F0B50023DC43830A3E
:10014000DDB2124B75B146091F273740BD406540EF
:10015000060C0C2737400E4EF659F618B7682F409C
:100160001743B760450E07222A406AB1050D1F26C6
:100170002E40B2406240800E0C24044005480059D5
:10018000C45814400C43C450F0BDC0461002005087
:10019000600E0000500E000010B5064A064B1C68A9
:1001A00004400121844202D00021521CF7D10846AC
:1001B00010BDC0463F39D2FF0C02005010B50748B1
:1001C0000168124A89180022F84B02E09C5C8C54AA
:1001D000521C402AFAD14021416010BD2005064042
:1001E00010B509480168094A89180022084B02E045
:1001F0008C5C9C54521C402AFAD1064901220A7098
:100200004021416010BDC046300506400001064057
:10021000E80800209408002010B504460A1822209F
:1002200000232146019CA64610BC01B000F006B890
:100230000146021D22200023C046C04670B5E14D94
:100240001BE0E8606960212801D11C68AC600124D2
:100250002C61BFF36F8F2E692642FCD12C6840269B
:1002600034420ED1222804D008B9AC681C600424A2
:1002700001E040F6000409191B1D00249142E0D35F
:1002800002E02C600020C443204670BD0B460146AE
:10029000021D0020FFF7D2BF1CB540F600010C463E
:1002A00001A92046FFF7F2FF61000028F7DA204697
:1002B00002B010BDF8B50C460546002008600320CA
:1002C00006056F4630463946FFF7E0FF3878C0072D
:1002D00014D1301D6946FFF7D9FF0C48009A104031
:1002E00009490B68984200D91846B54E324200D0F1
:1002F0001846009028600968081A03E00248006860
:10030000286000202060F8BD98080020FFFF0F0043
:100310001CB56C46204600F0C7FA207840B2002891
:1003200011DB684640780A2810D009280BD16846AE
:10033000C078032809D10948416980220A434261F3
:10034000002101611CBD00F09BFB1CBD03484168FE
:1003500080220A434260002101601CBD0405064062
:100360000C480021016040F2202040F22021203181
:10037000094A9160082111609061116141209062E9
:1003800010201062222090635020106340205063A0
:100390007047C0461800064000050640F0B587B01B
:1003A0000C4605460668814F002078603A460832C0
:1003B00003200690000501460831049200F008F978
:1003C0003B46BF6802200397059007402146083945
:1003D0002A4608329EB1FF2E11D0A42E06D11068F5
:1003E0007349A422CA6073490860CDE07048C660B2
:1003F000B12E2DD0A62E02D133201872C4E0304683
:10040000AB3802280CD805200007069A42606D48D8
:100410000168AC2E14D0AB2E00D00122914312E023
:10042000A02E1AD0FF2E35D0A32E16D0AE2E55D02A
:10043000C32E57D0A12E00D084E05E48C06866E08D
:100440009143059A114301605F4860490160FEE7EE
:10045000052000070068986096E0019702910692D7
:10046000544F79680020FFF7D7FEA32E46D1786855
:10047000B968FFF7D1FE0598039901434B4806463A
:1004800081600021049800F007FC33460120F860E9
:10049000069A4AE0464FB8683968091A39607A689E
:1004A00010187860444E0E40444A304600F090F8F0
:1004B0003046FFF7BDFE39683046404A00F012FC76
:1004C0003A4B3F48411CBA68891A3A6802408A424E
:1004D0005AD33018401CFFF7ABFE54E035480121D9
:1004E000016051E0334948688968314A1060002949
:1004F0004AD01E46FFF790FE33461CE00120F8600C
:10050000A02E14D0A12E294B069A019F0DD138435D
:10051000D0B3104604991E4600F0BEFB2549081DC5
:100520000831FFF7C7FE33462EE002990AE0204863
:10053000002101601D4BE8681D49486021461039C3
:100540002A4610321A4EF068C32801D0A0281BD1C9
:1005500070688842074600D30F46C01B7060306841
:10056000C119164600F0BEFB30463946FFF787FD3D
:100570000F480068C119324600F02AF80C498F6014
:100580000868C0190860094B002003E0297840186A
:100590006D1C641E002CF9D11880064801688A1C65
:1005A0000260481C5860002007B0F0BDA808002079
:1005B000600000200C00002000F80F0094000020D4
:1005C000FF07000000C000500CED00E00400FA0539
:1005D00013460A4601460020FFF730BEB0B5114869
:1005E00059210160162101608821016001680029FC
:1005F000F6D004242046FFF771FD1020FFF7CCFD54
:10060000002520462946FFF76FFD074C2046294666
:100610002A46FFF791FD2046B0BC02BC8E46FFF78C
:100620004BBDC046000100509B3C807270B51E4817
:1006300002680721114003690522140400222342A5
:100640001BD10124E204134201D0194A00E0174AE9
:100650006404234211D19C0B0325254015A4645D3D
:100660005D0A1F262E40B51C6543134C1C40A31C7D
:1006700092085A43B2FBF5F29200104B9A6002299D
:1006800001D1510802E089000D4A515880680F22BB
:100690000240501CB1FBF0F00A4941180A4AB1FB74
:1006A000F2F103C370BDC04610020050001BB7003A
:1006B00000366E0101020204FF010000000000206C
:1006C000680E000020A1070040420F0070470000A4
:1006D00070B5E648C16801B3C568E74CE669032117
:1006E000CA4320498A58204BD218F8328368B54251
:1006F00029D9E56904E01E781670521C5B1C6D1E3A
:10070000002DF8D1E2690A60E169826851188160C0
:10071000E169C268511AC16070BDD6490A785AB9F8
:100720004978052908D110490A6803699A4203D01B
:100730000A680AB902690A60017819B109490022F8
:100740000A60027070BDC46804E01D781570521C08
:100750005B1C641E002CF8D1C2680A600021C160D5
:10076000816070BD0405064008000640F0B5BF4832
:100770004268184C236843F600010B409A4203D1AB
:10078000BD48C069144923E022680A404260C1693B
:10079000026A91421DD210490A6883690325ED431C
:1007A0004D596419F4341D46164604E027782F701D
:1007B0006D1C641C761E002EF8D1C469A418C46197
:1007C0009A188261C269006A824202D2AA48C0694C
:1007D0000860F0BD0C0006401405064070B5A34A41
:1007E00000201070A3488379C17909021943C378A6
:1007F000222B0FD0022B22D0032B28D00F2B44D03A
:10080000012B39D11220122900D301469A48806960
:10081000006844E000798400974DAB691E69345943
:10082000A14208D9E969B4FBF1F54D43611B01D13F
:100830000121117021468000DA6810582FE0F04C39
:10084000A06940688578C3781B022B4308E0807854
:10085000032811D88000EA4CA3699B6818580378D4
:1008600099421CD9E169B3FBF1F44C43191B01D146
:1008700001211170194612E08048016802221143DB
:10088000016001691143016170BDDD4880698069C3
:100890008378C27812021A43914200D3114670BC89
:1008A00004BC964600F088B80021F74A02E0535C89
:1008B0004354491C0829FAD17047C04670B5334CDF
:1008C0002568E668042005420CD020602269E368B0
:1008D0008021184688439021194301231A4200D0F1
:1008E0000846E060E80715D001202060F00705D039
:1008F000E06890210143E16000F0AAF9B00703D558
:10090000E06810218843E060700703D5E06890211B
:100910000143E160280701D508202060A80734D5ED
:10092000002D0BDA0120C107216054490A680243F7
:100930000A600A6902430A6100F072F80126300475
:10094000E90302D52060FFF7C3FE7004A90302D5B6
:100950002060FFF70BFFB004690300D52060F004AE
:10096000290302D52060FFF73BFC3005E90200D5E2
:1009700020607005A90200D52060B005690200D58D
:100980002060F005290200D5206070BD04000640FB
:10099000BE4B98619960DA600068C079D8610548FB
:1009A00040F6D07101608021425801231343435027
:1009B0007047C0461000064070B5B44BDD692C4C42
:1009C000164A8D4217D2DD694519AE4EB560DD6914
:1009D000491BF160916880250D439560116861188D
:1009E000DC6904E005780D70491C401C641E002C75
:1009F000F8D1D9690FE0A34D0023EB60AB60956897
:100A000080262E4396601568641902E0C55CE554A3
:100A10005B1C9942FAD1516070BDC046000506408A
:100A2000984900204860124A974902E0835C0B54C1
:100A3000401C0828FAD1097860200840402804D0DA
:100A4000202806D048B900F02FB89048406860B11F
:100A500000478E48806840B100470848016802227C
:100A6000114301600169114301617047700000206A
:100A700000010640A0080020200000200C050640D0
:100A80000020C143074A10461030491C072908D8E6
:100A9000D2680F231A420246F6D1016802220A43A5
:100AA00002607047FC040640F8B5764C0020E06018
:100AB000A060754A517813785BB2002B3FDB491E6A
:100AC000082951D88B0001A5EB189F4600F010B8FB
:100AD00000F04AB800F051B800F046B800F067B82E
:100AE00000F042B800F040B800F03EB800F062B844
:100AF0009378012B6CD0002B6DD112790F231A4003
:100B00003E4C0834614D6D69C643009514E0B10058
:100B100067186158194091420CD1012181400D4262
:100B200008D121680225A943216039688025A9439D
:100B3000009D39601034401C0828E8D14BE02F4D4F
:100B4000062909D1FFF74AFE0020E061A06120627A
:100B50004E48C0692861F8BDA86802210843A86012
:100B6000A8690843A861F8BD24488168022211439E
:100B70008160816911438161F8BD93781F49012B20
:100B800032D0A3BB12790F231A400D46083DC4434F
:100B90002846641C1030072C29D8ED681D4095426A
:100BA0000546F6D102680223134303601FE09078E4
:100BB000206105E0907860613448006900B18047A9
:100BC0000E48416880220A43426000210160F8BD5E
:100BD0002E480021017009480246406880210143E7
:100BE000516000201060F8BD28480122027048685A
:100BF000802202434A6000200860F8BD04050640D8
:100C00002000002010B50E4800680E4941430E48F0
:100C10004160002181600522026001221304046802
:100C20001C42FAD00160902008490B5893430B50A6
:100C300040F20F1048600A6802430A6010BDC046C7
:100C400004000020A086010010E000E00000064043
:100C50000C490020C860C861886088610A4A106039
:100C600050600A4A50610862094904E042588023F2
:100C70009A43425010308028F8D106480021016084
:100C80007047C04670000020A0080020200000200F
:100C90000805064008000640F8B50C4600904B4990
:100CA0000868102738430860032005052E460836DB
:100CB0002220002329463246FFF7C0FA2120294688
:100CC0003246009BFFF7BAFA2CB100202946324683
:100CD0002346FFF7B3FA3D4801460068B843086071
:100CE000F8BDC04613460A4601462120FFF7A6BAC2
:100CF000FEB5FFF773FCF420334B195804220A4366
:100D00001A50324A1068012101431160FFF7C4FAFA
:100D10002F4908602F483049FFF7CCFA2F4E306832
:100D20008021084208D030683168014031602D4888
:100D300000682B4988423CD12B482C490022029262
:100D4000FFF726FEFFF70CFBFFF75CFF1E48056868
:100D5000274F102001903860294C25E0F06F0321C7
:100D60000140012907D038680199084203D01020BA
:100D700038602248F0678420325806210A4206D0A3
:100D8000114A1560029AF267315010203860FFF75F
:100D900095FD2078012807D140211A48FFF7FEFA77
:100DA000FFF70CFA002020700E4800680C498842BA
:100DB000D4D00320306005490A4609688143116098
:100DC0000C480D490160FEE71001005000C00050C2
:100DD000980800201000002014000020040000509B
:100DE0005A5A0000F44F0020880E00001103000042
:100DF000040006400CED00E00400FA0511060800AE
:100E000094080020E808002002E008C8121F08C16A
:100E1000002AFAD170477047002001E001C1121F7B
:100E2000002AFBD170470000000000000400000011
:100E30002C00000005010900A101150025FF190083
:100E400029FF954075088102190029FF9102C00011
:100E500000000000040000000C000000240000005E
:100E60000000000020000000001BB7000080000010
:100E70000044950810270000006CDC020000000010
:100E80000000000000366E01DD0E0000B40E000010
:100E90004800002040000020AC0E0000A40E00001E
:100EA0000000000012000000000000001B00000015
:100EB000000000000902290001010080320904003D
:100EC000000203000000092110010001221B00079D
:100ED00005810340000107050203400001120110D3
:100EE00001000000081604003F0000010203011089
:100EF00003570050004D00200055005300420004ED
:100F00000309041A0341003000320030003100357B
:100F10000030003800310033003000320010034E42
:100F200000750076006F0074006F006E0000000016
:100F3000500F00000000002058000000080E0000C4
:100F4000A80F000060000020C80C0000180E000070
:100F5000004495089000000000449508010000003E
:100F60000000000000000000000000000000000081
:100F70000000000000000000000000000000000071
:100F80000000000000000000000000000800000059
:100F9000340E000000000000FF0E00001D0F0000D6
:080FA000EF0E0000030F00003A
:0400000500000055A2
:00000001FF
