:020000040000FA
:1000000070040020FD000000050100000701000051
:1000100000000000000000000000000000000000E0
:1000200000000000000000000000000019010000B6
:1000300000000000000000001B0100001D01000086
:100040001F0100001F0100001F0100001F01000030
:100050001F0100001F0100001F0100001F01000020
:100060001F010000010700001F0100001F01000028
:100070007D0700001F0100001F0100001F0100009C
:100080001F0100001F0100001F0100001F010000F0
:100090001F0100001F0100001F0100001F010000E0
:1000A0001F0100001F0100001F0100001F010000D0
:1000B0001F0100001F0100001F0100001F010000C0
:1000C0001F0100001F0100001F0100001F010000B0
:1000D0001F0100001F0100001F0100001F010000A0
:1000E0001F0100001F0100000348854600F058F87A
:1000F00000480047C90A0000700400200C488047EF
:100100000C480047FEE77046EFF30881EFF30982E1
:10011000094B98470047FEE7FEE7FEE7FEE7FEE7EC
:10012000ABBE064B7446984720477046F047000028
:1001300015060000E90000006D04000089040000BD
:10014000F0B51FB40646002082B005464024019158
:1001500000901BE0019922460F46304600F042F81D
:10016000049A059B801A994110D3104619462246DD
:1001700000F028F8361A8F4101972246012000210D
:10018000009F00F01FF838184D4100902046641E73
:100190000028DFDC019B00982946324607B0F0BDFD
:1001A000064C0125064E05E0E36807CC2B430C3CCA
:1001B00098471034B442F7D3FFF79AFF5410000069
:1001C0007410000010B5202A04DB0146203A91404B
:1001D000002010BD914020239C1A0346E3401943A0
:1001E000904010BD10B5202A04DB0846203AD040CC
:1001F000002110BD0B46D340D0402024A21A9140CC
:100200000843194610BD00001F21014001228A4009
:10021000000F0C2101400348405803494358134341
:1002200043507047B00F00000402005047490A686D
:1002300002430A607047C04680B500F09BF9184839
:10024000006880BD80B500F095F91548006880BD54
:100250003E480068012101404942E6480840704795
:100260003A480068810348F2000008407047C046E1
:1002700080B500F07FF9DE48006880090121014067
:1002800007480068C84080BD80B500F073F9D848C1
:100290000068C0090121014001480068C84080BDD4
:1002A0000000002010B5124801680520020400205B
:1002B00011421BD10122D004014201D00E4800E0BE
:1002C0000C485204114211D18A0B032313400BA294
:1002D000D25C4B0A1F241C40A31C5343C84A0A404B
:1002E000911C80084843B0FBF3F0800010BDC0466D
:1002F00020020050001BB70000366E01010202040C
:10030000F8B5124CE668226804252A4322601022C0
:1003100016402D4BE768174201D15B1CFAD107222A
:10032000D243236913402B432361A3690F27BB43A7
:100330000B43A361216911400143216100F01AF9C7
:1003400016B92068A8432060F8BDC04600020050DE
:10035000F0B50023DC43830ADDB2A54B75B1460935
:100360001F273740BD406540060C0C2737400D4E17
:10037000F659F618B7682F401743B760450E0722A5
:100380002A406AB1050D1F262E40B2406240800E01
:100390000C24044004480059C45814400C43C45071
:1003A000F0BDC046FC0F0000CC0F000010B5064A9F
:1003B000064B1C6804400121844202D00021521CDB
:1003C000F7D1084610BDC0463F39D2FF0C0200509D
:1003D000B0B50F200106124A13688B431360000763
:1003E0001168814311600F4C0125204644F2000141
:1003F0002A4600F025F8204648F200012A4600F07F
:100400001FF809480022026008480368591C01606F
:10041000074808A1039CA646B0BC01B000F05EBB33
:100420003C00005040400050F44F0020F84F0020A6
:10043000241000004750494F5F496E697400000066
:10044000F0B500231C460DE00125A5400D4207D064
:1004500015469D4003269E400768B7432F4307601B
:100460009B1C641C102CEFD1F0BD000080B502A0D5
:1004700000F08EFDFEE7C0462020486172644661B0
:10048000756C74210A00000000207047F8B51F4EFB
:100490005920306016203060882030603068002895
:1004A000F6D004252846FFF7C1FE1020FFF77EFF97
:1004B000002428462146FFF723FF154D154B2846FB
:1004C000214622469847144F2846B847134D2846E0
:1004D000B84703200106284622460E4B9847104D88
:1004E0002846B847284647F200012246094B98475C
:1004F000C320C0433158FF221204914333225204D7
:100500000A43325000F036F83460F8BD0001005064
:100510009B3C80725103000009020000103D80578F
:100520000300C05E0A48016802220A430260704765
:1005300010B5010E064A8B58FF242406A04301245F
:10054000844023438B508858A043885010BDC04638
:10055000080000500121C905C3B2EA4A0A2B04D1A0
:1005600093690B42FCD10D23136093690B42FCD1BC
:100570001060704770B51E4802680721114003697A
:1005800005221404002223421BD10124E204134259
:1005900001D0194A00E0174A6404234211D19C0B90
:1005A0000325254015A4645D5D0A1F262E40B51C59
:1005B0006543134C1C40A31C92085A43B2FBF5F24E
:1005C0009200104B9A60022901D1510802E0890083
:1005D0000D4A515880680F220240501CB1FBF0F0C8
:1005E0000A4941180A4AB1FBF2F103C370BDC04683
:1005F00010020050001BB70000366E010102020419
:10060000FF010000000000200410000020A10700EE
:1006100040420F0070470000B0B50125E906194CB3
:10062000204640F2E83200F037F8680721680143BD
:100630002160B54840F200210160A807216801430C
:100640002160B0BD0F49884206D00F49884207D1CA
:10065000DA480068000A0BE0D8480068000B07E0A1
:10066000D6490968094A904201D0080D00E0080CFB
:10067000072101408800064A1018022900D10548C8
:100680000068704720000140000001400000114058
:10069000DC0F000000000020F8B516460D460446A9
:1006A000FFF7D0FF4108002202238E4201D9014604
:1006B00016E0104A904202D3C10807220EE00E4A0B
:1006C000904202D38108032208E00C4B012200274C
:1006D000984200D83A46984200D80146B1FBF6F35A
:1006E000154325606360501C5843B1FBF0F001B026
:1006F000F0BDC0460190D0030148E8010024F40099
:10070000B0B510480168012421421AD004600E4D92
:100710002868401C2860286840F2E831B0FBF1F2FC
:100720004A43801A0BD109480268511C016008A095
:100730000DA100F0D3F910480168614001602868FC
:100740002868B0BD2800014068000020100000208B
:1007500050524F4A4543545F3031202573203A2090
:100760002534640D0A000000544D52315F49525146
:1007700048616E646C65720078420050B0B5BB4C45
:10078000E06941F20011084207D044F2000501E09F
:1007900000F018F9A0692842FAD0A0697121084236
:1007A00007D0204642F20041B0BC04BC964600F09F
:1007B00081B8B0BD10B51A48FFF7BAFEE12041027A
:1007C000184C204600F0A2F81121204600F088F8CD
:1007D000154841F200010160FFF72EFD0146134864
:1007E000134CA047FFF734FD014612A0A047FFF7C6
:1007F00037FD014615A0A047FFF73AFD014619A0B5
:10080000A047FFF741FD01461DA0A047FFF71AFDD5
:10081000014622A0224610BC08BC9E461047C04696
:10082000100000040000054000E100E03B10000063
:10083000DD0A0000434C4B5F4765744858544672CC
:100840006571203A202538640D0A0000434C4B5F47
:100850004765744C585446726571203A20253864B7
:100860000D0A0000434C4B5F47657450434C4B30BE
:1008700046726571203A202538640D0A0000000098
:10088000434C4B5F47657450434C4B314672657126
:10089000203A202538640D0A00000000434C4B5FCD
:1008A00047657448434C4B46726571203A202538A1
:1008B000640D0A004A0501D5682282610A0503D544
:1008C00042690123134343618A0401D5034A8261CB
:1008D000490401D5416C41647047C04601000001E4
:1008E00042680A4342606149884205D032498842E1
:1008F00006D142F2000001E041F200000249086026
:100900007047C0460000054000E100E0F0B587B048
:1009100002910446274803A96CC86CC1082018211D
:100920000025524A944207D02348844228462F4645
:100930002E4613D10C201A21204A1368CB400326DF
:100940001E405168C1400F270F400020012E05D1E5
:10095000FFF7A8FC40080490012006462563032504
:10096000E560A168164A0A40A26038B1B000019063
:10097000FFF798FC400803A9019A8850029ABAB17F
:10098000B00003A90858791CB0FBF1F15008081811
:10099000B0FBF2F0801E1346020C06D0D8000818F7
:1009A000B0FBF3F00009801E01E0290708436062F4
:1009B00007B0F0BDBC0F000000001540140200504D
:1009C0000FFFF0FF10B5294C2068802108423DD16F
:1009D000C0B27A2840D058283ED05A283CD0782837
:1009E0003AD0312841D12948294A02602948036870
:1009F00029482AA100F072F801200107A2690A42E1
:100A0000FAD02A49096840F2E8324A4328494A6044
:100A100000228A6005220A6002040B681342FBD0A0
:100A200000200860234859210160162101608821B7
:100A3000016001680029F6D01F48016802220A43BC
:100A4000026010BC01BC8646FFF76CBD08A010BC5C
:100A500002BC8E4600F09CBABFF34F8F09480A498A
:100A60000160BFF34F8F00BFFDE710BD00000540E0
:100A7000696E76616C696420636F6D6D616E640D83
:100A8000000000000CED00E00400FA05F44F002027
:100A90005A5A0000F84F00202410000055415254CB
:100AA000785F50726F63657373000000040000206C
:100AB00010E000E00001005000C0005010B50446F6
:100AC000FFF748FD204610BD80B5FFF7DFFCFFF7BC
:100AD0007FFCFFF76FFEFFF79FFDFEE70FB410B539
:100AE00003A9044B044A029800F018F810BC08BC93
:100AF00004B01847BD0A00001400002002E008C836
:100B0000121F08C1002AFAD170477047002001E087
:100B100001C1121F002AFBD170470000FFB591B040
:100B20000F460546002606E025280AD0149A139998
:100B300090476D1C761C28780028F5D1304615B0FA
:100B4000F0BD002400940121F34A029400E0044324
:100B50006D1C2B780846203B98401042F7D128782E
:100B60002A280ED0022128780246303A092A15D8C0
:100B7000009A0A235A43303A80180C436D1C0090A7
:100B8000F1E701CF0090002805DA0120400304437B
:100B9000009840420090022004436D1C28782E28C3
:100BA00015D10420044368786D1C2A280AD101CF8E
:100BB0006D1C02900BE002990A2251433039401813
:100BC0006D1C02902878014630390929F3D928781C
:100BD0006C2810D006DC4C281AD068280ED06A2861
:100BE00017D104E0742813D07A2812D110E0012024
:100BF000400504430CE00121090501E0032109053A
:100C00000C436978814203D10120000524186D1C32
:100C10006D1C287803906E281ED00CDC632831D020
:100C200004DC00288AD0582811D1B2E064287BD097
:100C300069280CD178E073282DD004DC6F2870D09F
:100C4000702804D1A7E075286CD078286BD0149A4E
:100C500013999047761C62E06002400F022807D08B
:100C600003280AD0042838680AD006603F1D56E0E1
:100C70003868F11706604160F8E738680680F5E7E4
:100C80000670F3E73878694608740020487404A8B1
:100C90000390012003E0386803900020C0433F1D0B
:100CA00061070FD5002101E00199491C029A0191C9
:100CB000914213DA8142F7DB019A0399895C00299A
:100CC000F2D10BE0002101E00199491C0191814220
:100CD000FADB019A0399895C0029F5D10199009802
:100CE000139A401A00902146149B00F03BF9019999
:100CF0008019461807E0039803990078491C03916E
:100D0000149A139990470198401E0190401CF2D10B
:100D10002146149B139A009800F014F986196D1C53
:100D200009E741E033E034E00A2000210490059116
:100D30006002410F022905D001CFC2179446032952
:100D400005D007E0FF1DFF08FF0003CF06E000B25B
:100D5000C2179446042902D140B2C1178C46002222
:100D60006146944506DA0A460021404291418C468C
:100D70002D2102E0210504D52B216A46117601219F
:100D800003E0E10701D02021F7E7019154E00A20B8
:100D90000BE0102009E010200490002104200443FF
:100DA00008200591029003E008200021059104909D
:100DB0006002410F022905D001CF00229446032989
:100DC00006D006E0FF1DFF08FF0003CF8C4603E0BE
:100DD00080B2042900D1C0B20021019121072BD596
:100DE0000399702906D0049A1021059B4A401A43A2
:100DF00005D00EE040216A461176012108E06146E7
:100E0000014306D030216A461176039951760221BA
:100E10000191049A0821059B4A401A430CD161466E
:100E2000014301D1610707D530216A4611760121BE
:100E300001910299491E02910399582904D037A1C2
:100E400003910FA90F910DE039A1F9E76146059BC8
:100E5000049AFFF775F9039B8C469B5C0F9A521E10
:100E60000F92137061460143F0D10F9807A9081A39
:100E700020300390600704D50120000484430298C9
:100E800001E0012002900399884201DD401A00E050
:100E9000002041180290019809180098401A00900B
:100EA000E00306D42146149B139A009800F05AF8E8
:100EB00086190020049008E006A9085C149A13998A
:100EC00090470498401C761C049001998842F3DBFB
:100ED000E0030CD52146149B139A009800F042F8C9
:100EE000861904E0149A302013999047761C0299D1
:100EF000481E02900029F5DC08E00F980F99007851
:100F0000491C0F91149A13999047761C0399481E17
:100F100003900029F1DCFBE609280100303132336F
:100F20003435363738396162636465660000000025
:100F3000303132333435363738394142434445460F
:100F400000000000F8B5044600251E461746880438
:100F500004D405E039462020B0476D1C641EF9D545
:100F60002846F8BDFFB50446002581B01E46C803DB
:100F700001D5302700E02027880404D505E0384655
:100F80000399B0476D1C641EF9D5284605B0F0BD25
:100F900010B5044601E0FFF791FD2078641C034979
:100FA0000028F8D10A20FFF789FD10BD14000020A9
:100FB00000000000040000002C000000001BB7002F
:100FC000000000000080000000366E0100000000FC
:100FD000040000000C00000024000000001BB7000B
:100FE0000080000000000000000000000000000081
:100FF000102700000000000000366E010000000015
:1010000020000000001BB70000800000004495088D
:1010100010270000006CDC0200000000000000004F
:1010200000366E012573203A202830782534582068
:101030002C203078253458290D0A000D0A434C4BDA
:101040005F47657443505546726571203A202538D4
:10105000640D0A0074100000000000200C00000065
:10106000FC0A000080100000100000206004000056
:101070000C0B000000449508900000000044950807
:04000005000000FDFA
:00000001FF
